:020000040800F2
:10000000480800209D010008F157000861410008E0
:10001000ED5700086D0800081D630008000000008F
:10002000000000000000000000000000F75700087A
:10003000F908000800000000F5570008F95700080B
:10004000B7010008B7010008B7010008B7010008B0
:10005000B7010008B7010008B7010008B7010008A0
:10006000B7010008B7010008B7010008B701000890
:10007000B7010008B70100087108000881080008EE
:1000800091080008A108000835070008B70100081A
:10009000B7010008B7010008B7010008B701000860
:1000A000B701000899580008B7010008B701000817
:1000B000B70100080000000000000000B7010008C0
:1000C000B7010008B7010008B701000800000000F0
:1000D000B7010008FD6200080D630008B7010008C1
:1000E000FB080008B7010008B70100080000000085
:1000F0000000000000000000000000000000000000
:10010000000000000000000000000000B70100082F
:100110000000000000000000A958000800000000D6
:1001200000000000000000000000000000000000CF
:1001300000000000000000000000000000000000BF
:10014000B7010008B701000800000000000000002F
:10015000000000000000000000000000000000009F
:10016000B7010008B7010008B7010008B70100088F
:10017000B7010008000000000000000000000000BF
:1001800000000000B7010008DFF80CD000F0E2F931
:1001900000480047356700084808002006488047A7
:1001A00006480047FEE7FEE7FEE7FEE7FEE7FEE75C
:1001B000FEE7FEE7FEE7FEE7855800088901000834
:1001C0002DE9F05F0546002092469B46884606468C
:1001D000814640241BE0284641464746224600F01F
:1001E00020F853465A46C01A914110D3114618467A
:1001F000224600F067F82D1A67EB01084F462246A9
:100200000120002100F05EF817EB00094E41201E8E
:10021000A4F10104DFDC484631462A464346BDE8E6
:10022000F09F202A04DB203A21FA02F000217047D7
:1002300021FA02F3D040C2F120029140084319464E
:100240007047D2B201E000F8012B491EFBD2704783
:100250000022F6E710B513460A4604461946FFF792
:10026000F0FF204610BD00F0004230F000400AD000
:10027000C10D01F56071C0F3160042EA0151C208D8
:1002800040071143704700200146704701F00043CA
:1002900030B421F0004150EA010206D00A0DA2F567
:1002A0006072C1F31301002A02DC30BC00207047E9
:1002B000440F44EAC104C100E01830BC00EBC25056
:1002C00000F00FB8202A04DB203A00FA02F10020E7
:1002D00070479140C2F1200320FA03F31943904084
:1002E00070470029A8BF7047401C490008BF20F094
:1002F0000100704710B4B0FA80FC00FA0CF050EA2C
:10030000010404BF10BC704749B1CCF1200421FAAC
:1003100004F411FA0CF118BF012121430843A3EBA7
:100320000C01CB1D4FEA00614FEA102042BF0020B4
:1003300010BC704700EBC35010440029A4BF10BC90
:100340007047401C490008BF20F0010010BC7047F6
:100350002DE9FE4F804681EA0300C00F0C46009055
:1003600021F0004123F00045B8EB0200A94105D27D
:100370004046214690461C460B46024623F000406C
:10038000104347D0270DC7F30A00C3F30A51029068
:10039000401A019040286BDAC3F3130040F4801B2D
:1003A0000098924620B10023D2EB030A63EB0B0BBB
:1003B00001985946C0F140025046FFF783FF0646B8
:1003C0000D4650465946019A00F0D6F810EB080049
:1003D0006141002487EA115284EAE7731A4340D04E
:1003E000009A62B3019A012A4FEA075215DC001BFA
:1003F00061EB02014FF0004202EA0752CDE90042F0
:10040000001C41F5801132462B4600F0D6F803B0AF
:10041000BDE8F08F40462146F9E7001B61EB020181
:10042000001C41F5801300185B412018A2F500174D
:1004300047EB030140EAD570B6196D4111E06D0834
:100440004FEA360645EAC0754FEA0752001B61EBDA
:100450000201001C41F5801149084FEA30000019E3
:10046000514132462B4603B0BDE8F04F00F096B83C
:100470000098012240000023D0EB020263EBE073FE
:10048000009821464FEAE074B8EB000061EB0401EC
:10049000E9E783F000435BE781F0004158E72DE98D
:1004A000FE4FC3F30A5701F000450024C1F30A567A
:1004B000C3F31303C1F3130143F4801312EB020AD5
:1004C000A64641F48011009543EB030CA7F1010B04
:1004D00016E0B0EB0A0061EB0C01071E71F100079A
:1004E00007DA4FF00008D0EB080085F0004568EB14
:1004F0000101171A73EB0107EBD3761E001849416F
:100500005E45F6DA50EA010209D0CDE900E50022A5
:100510001346029600F051F803B0BDE8F08F204674
:100520000099F9E730B5041E71F1000404DB4FF0C7
:100530000044404264EB0101141E73F1000405DB2A
:100540001C464FF00043524263EB0403994208BF3C
:10055000904230BD064C074D06E0E06840F00103D4
:1005600094E8070098471034AC42F6D3FFF710FE2A
:100570005C7300087C730008202A06DBCB17203A46
:1005800041FA02F043EAE07306E041FA02F3D04098
:10059000C2F12002914008431946704710B5141E5D
:1005A00073F1000408DA401C41F1000192185B412C
:1005B0001A4301D120F0010010BD2DE9F04D924603
:1005C0009B4611B1B1FA81F202E0B0FA80F220321A
:1005D0009046FFF777FE04460F4640EA0A0041EADC
:1005E0000B0153465A46084313D0114653EA010003
:1005F00019D0C8F140025046FFF713FE05460E46DB
:10060000504659464246FFF75DFE084305D001209B
:1006100004E020463946BDE8F08D0020054346EA57
:10062000E0762C4337430A986305E40AA0EB080000
:100630000022FD0A44EA47540A3002D50020014650
:10064000E9E7010510196941DDE90845001969412B
:10065000BDE8F04DA2E72DE9F04D81EA030404F076
:10066000004B21F0004514464FF0000A23F00041F2
:1006700050EA050220D054EA01021DD0C5F30A5702
:100680000246C5F31303C1F31300C1F30A5640F445
:10069000801543F48013A7EB0608101BD64608F21A
:1006A000FD3873EB050002D308F1010801E0921850
:1006B0005B41B8F1000F03DA00200146BDE8F08D80
:1006C00000204FF48011064684460EE0171B73EBA2
:1006D000050705D3121B63EB050306434CEA010C27
:1006E00049084FEA300092185B4150EA0107EDD10A
:1006F00052EA030012D082EA040083EA05010843AB
:1007000005D0101BAB4106D20122002306E00022D7
:100710004FF0004302E06FF0010253101AEB0600A5
:100720004CEB085110EB0A0041EB0B01BDE8F04D1A
:10073000FFF734BF10B5024800F0AAFE10BD00005C
:100740007000002070B5044600252068806800F025
:100750000300012806D12068006800F0010008B1FC
:10076000012000E0002080B32068806800F00D00C8
:10077000012800D100E0002050B100BF206880684F
:1007800040F002002168886003202168086009E0C9
:10079000206C40F010002064606C40F00100606448
:1007A000012070BD01F074FB05460FE001F070FB05
:1007B000401B02280AD9206C40F010002064606CB5
:1007C00040F0010060640120EBE705E020688068EC
:1007D00000F001000028E9D10020E2E770B50446EE
:1007E00000252068806800F00300012806D12068F9
:1007F000006800F0010008B1012000E0002088BB83
:10080000206880681849084008B9012000E00020ED
:1008100048B9206C40F010002064606C40F001008A
:100820006064012070BD2068806840F0010021688C
:10083000886001F02DFB05460EE001F029FB401B0E
:10084000022809D9206C40F010002064606C40F050
:10085000010060640120E5E72068006800F0010005
:100860000028EAD00020DDE73F00008000BFFEE75F
:1008700010B5024801F02CF910BD0000F002002074
:1008800010B5024801F024F910BD0000AC020020B0
:1008900010B5024801F01CF910BD0000340300201F
:1008A00010B5024801F014F910BD000078030020D3
:1008B000054A0168891A1422B1FBF2F1890001642A
:1008C00001490839C16370470800024030B590F80B
:1008D00040500124AC40C56B6C60046863604468A0
:1008E000102C04D10468A2600468E16003E004688D
:1008F000A1600468E26030BD704710B54FF48060BD
:1009000001F0D4F94FF4005001F0D0F910BD72B6E7
:1009100000BFFEE7F0B595B002460026002000902B
:100920000025106900B100BFC868012800D000E0B0
:1009300000BF00BF92F83C00012802D1022015B090
:10094000F0BD012082F83C0000BF106910B1886939
:1009500001281FD14868012816D1086A012807D04C
:100960000F68086A40EA07204F6A3843054302E0EF
:10097000086845EA00251068C06CF94F38402843E4
:100980001768F864956443E0106C40F02000106430
:1009900001263DE0D06CA8B98F69D764002090642F
:1009A000086A012809D08869401E0F6A38434F6AD7
:1009B0003843976C3843906404E0906C8F697F1ED5
:1009C000384390640F7907EB47077F00BF1C4FF057
:1009D0001F0C0CFA07FC906C20EA0C0091F804C084
:1009E0000CEB4C0C4FEA4C0C0CF1020C0F6807FAA4
:1009F0000CF738439064D06C401ED064D06C38B98A
:100A00001068C06CD64F3840976C38431768F8644C
:100A100010688068C0F3C000F8B9487F60B9887F6B
:100A200040050F7F40EA07501768FF6827F440171A
:100A300038431768F86010E01068C06820F4401070
:100A40008F7F40EA47501768F860087F012804D17B
:100A5000106C40F02000106401261068806800F0DF
:100A60000C0008B1012000E00020002875D1086AC0
:100A7000012809D11068C06820F000704F7F40EA5B
:100A800047601768F8600DE01068C06820F00070DB
:100A90001768F860487F012804D1106C40F02000EE
:100AA0001064012608680A2816D3106880690F7838
:100AB0000A3F07EB470C072707FA0CF7B84391F8F2
:100AC00000C0ACF10A0C0CEB4C0C8F6807FA0CF769
:100AD00038431768B86112E0106840690F7807EB77
:100AE000470C072707FA0CF7B84391F800C00CEB46
:100AF0004C0C8F6807FA0CF738431768786148691F
:100B00001768FF68C7F3C1077F0000FA07F4086998
:100B1000012806D0022812D003281FD0042839D17A
:100B20002AE01068006E8F4F38400F784FF0004C6D
:100B30004CEA8767274338431768386663E01068D4
:100B4000406E884F38400F784FF0004C4CEA876772
:100B5000274338431768786655E055E01068806E83
:100B6000804F38400F784FF0004C4CEA876727439E
:100B700038431768B86646E01068C06E794F384051
:100B80000F784FF0004C4CEA8767274338431768CB
:100B9000F86638E01068006E00F0F8400F78B0EBAF
:100BA000876F05D11068006E20F000401768386626
:100BB0001068406E00F0F8400F78B0EB876F05D1F9
:100BC0001068406E20F00040176878661068806EEC
:100BD00000F0F8400F78B0EB876F05D11068806E99
:100BE00020F000401768B8661068C06E00F0F8404A
:100BF0000F78B0EB876F05D11068C06E20F0004011
:100C00001768F86600BF00BF1068806800F0030036
:100C1000012806D11068006800F0010008B1012029
:100C200000E00020002871D1C86801280CD01068AD
:100C3000D0F8B00091F800C0012707FA0CF7B843CC
:100C40001768C7F8B0003CE01068D0F8B00091F821
:100C500000C0012707FA0CF738431768C7F8B0003F
:100C600008680A2817D3106887690878093800EBE4
:100C7000400C072000FA0CF027EA00000F78093F2B
:100C800007EB4707D1F808C00CFA07FC40EA0C0054
:100C90001768B86115E0106840690F787F1C07EB92
:100CA000470C072707FA0CF7B84391F800C00CF17E
:100CB000010C0CEB4C0C8F6807FA0CF738431768E3
:100CC0007861294B0868102803D1986800F4000067
:100CD00068B10868112803D1986800F0807030B1BD
:100CE0000868122866D1986800F4800070B9002066
:100CF00001901068806800F00300012807D1106897
:100D0000006800F0010010B1012001E04CE000207B
:100D100028BB019870B10198806800F00300012899
:100D200006D10198006800F0010008B1012000E040
:100D30000020A0B90868102823D11068B0F1A04F96
:100D40001FD1986840F40000986008480068084F78
:100D5000B0FBF7F000EB8000400000900DE024E0D5
:100D60000020088200F0FF8300030050680000208C
:100D700040420F000098401E009000980028F9D1D2
:100D800018E00868112808D11068B0F1A04F04D10C
:100D9000986840F0807098600CE00868122809D1CB
:100DA000986840F48000986004E0106C40F02000E7
:100DB0001064012600BF002082F83C0000BF3046CE
:100DC000BDE500007FB5064601220421584801F028
:100DD00059F8584802784FF4E051574801F052F85A
:100DE000002001900290039000240121534800F05C
:100DF000BFF880B200900221504800F0B9F885B2E7
:100E0000BDF800004E49C886084605874948007865
:100E100081F848004B4890ED000A4B4880ED000AED
:100E200005F048FE4948C06849490988401A00EE63
:100E3000100AB8EE400A8DED010A4448C0684549E1
:100E40000988401A00EE100AB8EE400A8DED020A39
:100E50003E48C06840490988401A00EE100AB8EEC2
:100E6000400A8DED030A9DED010ABCEEC00A10EEAA
:100E7000100A3649096848639DED020ABCEEC00AB3
:100E800010EE100A3149096888639DED030ABCEE33
:100E9000C00A10EE100A2D490968C8632F4800786F
:100EA00088B973202E49087048700846BDF80010B4
:100EB00041802C4909888180062428480078401CFC
:100EC0002649087020E025480078C7280FD124481B
:100ED000BDF80010018023490988818065202049E0
:100EE00008714871062400201C4908700CE01C4859
:100EF000BDF8001001801B4909884180042417486F
:100F00000078401C1549087017480088401C164995
:100F100008800848007820B122461149134803F0A0
:100F2000C3F800220421024800F0ACFF7FBD00009E
:100F3000000C004816000020000800487000002047
:100F4000FC030020180000204C000020C0000020FE
:100F50004400002046000020480000201C00002023
:100F600010000020500000201E0000202802002059
:100F700002460020012912D002290BD0032905D0F6
:100F800004290BD11368D3F88C000CE01368D3F854
:100F9000880008E01368D3F8840004E000BF1368F9
:100FA000D3F8800000BF00BF7047704770B504469B
:100FB000002520688068C0F3C00000285ED100BF13
:100FC00094F83C00012801D1022070BD012084F872
:100FD0003C0000BF2046FFF701FC0546002D48D12C
:100FE000206C42F20101884340F480502064206C60
:100FF00020F480102064206C00F4807008B9002078
:10100000606400BF002084F83C0000BF60202168BD
:1010100008602068C06800F4001028B120684068AB
:1010200040F4806021684860606908280CD120681D
:10103000406820F02000216848602068406840F047
:1010400040002168486006E02068406840F0600089
:101050002168486000BF00BF2068C06800F00070D1
:1010600068B900BF2068806840F008002168886087
:1010700005E000BF002084F83C0000E0022528467F
:10108000A3E7704770470000F0B595B00246002511
:1010900000200090C868012800D000E000BF00BF19
:1010A00092F83C00012802D1022015B0F0BD0120C9
:1010B00082F83C0000BF10688068C0F38000002800
:1010C00079D14868052812D21068006B0E7906EBBA
:1010D000460677001F26BE40B0430F7907EB47074F
:1010E0007F000E68BE4030431668306343E04868B6
:1010F0000A2814D21068406B0E79761F06EB46065C
:1011000077001F26BE40B0430F797F1F07EB4707CC
:101110007F000E68BE403043166870632BE048685D
:101120000F2814D21068806B0E790A3E06EB460633
:1011300077001F26BE40B0430F790A3F07EB4707F1
:101140007F000E68BE4030431668B06313E010683D
:10115000C06B0E790F3E06EB460677001F26BE4099
:10116000B0430F790F3F07EB47077F000E68BE4083
:1011700030431668F0631068806800F00C0008B116
:10118000012000E00020002870D108680A2813D34D
:10119000106880690E780A3E06EB46070726BE40B7
:1011A000B0430F780A3F07EB47078E68BE403043D5
:1011B0001668B06110E055E1106840690E7806EBE2
:1011C00046070726BE40B0430F7807EB47078E68F7
:1011D000BE4030431668706148691668F668C6F309
:1011E000C106760000FA06F40869012806D0022834
:1011F00012D003281ED0042839D129E01068006ECF
:101200009E4E30400E784FF0004747EA86662643F0
:1012100030431668306663E01068406E974E304089
:101220000E784FF0004747EA86662643304316683B
:10123000706655E01068806E904E30400E784FF02A
:10124000004747EA8666264330431668B06647E0A3
:101250001068C06E894E30400E784FF0004747EA64
:101260008666264330431668F06639E039E0106838
:10127000006E00F0F8400E78B0EB866F05D1106874
:10128000006E20F00040166830661068406E00F076
:10129000F8400E78B0EB866F05D11068406E20F0F4
:1012A0000040166870661068806E00F0F8400E7896
:1012B000B0EB866F05D11068806E20F00040166894
:1012C000B0661068C06E00F0F8400E78B0EB866F24
:1012D00005D11068C06E20F000401668F06600BFAF
:1012E00000BF1068806800F00300012806D1106874
:1012F000006800F0010008B1012000E00020002893
:1013000076D1C86801280AD01068D0F8B0000F78EC
:101310000126BE40B0431668C6F8B00032E010683F
:10132000D0F8B0000F780126BE4030431668C6F8EA
:10133000B00008680A2813D310688669087809384D
:1013400000EB40070720B84026EA00000E78093E6F
:1013500006EB46068F68B74038431668B06111E067
:10136000106840690E78761C06EB46070726BE40DB
:10137000B0430F787F1C07EB47078E68BE403043B1
:10138000166870613E4B0868102803D1986800F415
:10139000000068B10868112803D1986800F08070D7
:1013A00030B10868122862D1986800F48000F8B95A
:1013B000002001901068806800F00300012806D129
:1013C0001068006800F0010008B1012000E0002072
:1013D000C8BB019878B10198806800F0030001282B
:1013E00007D10198006800F0010010B1012001E070
:1013F00031E0002038BB0868102818D11068B0F11F
:10140000A04F14D1986840F4000098601D4800680F
:101410001D4EB0FBF6F000EB80004000009002E0B3
:101420000098401E009000980028F9D11FE008683D
:10143000112809D11068B0F1A04F05D1986840F08B
:101440008070986013E007E0086812280FD1986850
:1014500040F4800098600AE0106C40F020001064B6
:10146000012504E0106C40F020001064012500BF4D
:10147000002082F83C0000BF284616E600F0FF83FB
:10148000000300506800002040420F007047704782
:101490002DE9F041044600270026B0462068006888
:1014A00000F00400042805D12068406800F0040022
:1014B00004280BD02068006800F00800082843D1F9
:1014C0002068406800F0080008283DD1206C00F03A
:1014D000100018B9206C40F4007020642068C668C1
:1014E0002068C06800F44060F8B906F40050E0B924
:1014F0002068006800F0080008281FD12068806874
:10150000C0F3800090B92068406820F00C0021688A
:101510004860206C20F480702064206C00F48050BF
:1015200018B9206C40F00100206407E0206C40F006
:1015300010002064606C40F0010060642046FFF7FA
:10154000A5FF0C20216808602068006800F02000DA
:10155000202805D12068406800F0200020280BD00A
:101560002068006800F0400040284DD120684068A5
:1015700000F04000402847D1206C40F40050206427
:101580002068C6682068C06C00F0C00068BB06F028
:10159000007038B12068C06800F4406028BB06F4D1
:1015A000005010BB2068006800F04000402825D1A2
:1015B0002068D0F80C8008F40010B0B9206880686A
:1015C000C0F3C00090B92068406820F06000216836
:1015D0004860206C20F480502064206C00F48070FF
:1015E00018B9206C40F00100206407E0206C40F046
:1015F00010002064606C40F0010060642046FFF73A
:10160000E1FB6020216808602068006800F080002D
:1016100080280FD12068406800F08000802809D120
:10162000206C40F480302064204600F0ABF980202C
:10163000216808602068006800F48070B0F5807F41
:1016400011D12068406800F48070B0F5807F0AD125
:10165000206C40F4003020642046FFF712FD4FF468
:101660008070216808602068006800F40070B0F5A0
:10167000007F11D12068406800F40070B0F5007F51
:101680000AD1206C40F4802020642046FFF7FAFC49
:101690004FF40070216808602068006800F01000B6
:1016A00010282BD12068406800F01000102825D1A8
:1016B000606B012801D1012710E0204DA86800F0DF
:1016C0001F0030B92068C06800F0010030B1012768
:1016D00004E0A86800F4404000B10127012F0AD1BE
:1016E000206C40F480602064606C40F00200606414
:1016F0002046FFF7CCFE10202168086020680068B3
:1017000000F48060B0F5806F15D12068406800F467
:101710008060B0F5806F0ED1206C40F48040206472
:10172000606C40F0080060644FF4806021680860DD
:101730002046FFF73AFCBDE8F081000000030050AE
:10174000F0B595B00446002600250020009014B99D
:10175000012015B0F0BD206918B12020005D00B156
:1017600000BF206C00F01000002853D1206C98BB03
:10177000002060640021E164A06484F83C002046FD
:1017800000F002F92068806800F0805020BB2046FD
:10179000FEF7D8FF0646206C00F01000E0B9DEB975
:1017A000206C20F4885040F002002064206880689B
:1017B00020F04050216888602068806840F08050A8
:1017C000216888606B4800686B49B0FBF1F000EB62
:1017D00080004000009003E005E00098401E00906B
:1017E00000980028F9D12068806800F0805030B15E
:1017F0002068806800F00050B0F1005F0AD1206CD2
:1018000020F0020040F010002064606C40F0010005
:1018100060640126206C00F0100000287ED1002EAC
:10182000FCD120688068C0F380000028F6D1206CCD
:1018300020F4807040F002002064504F002001909E
:101840002068806800F00300012806D12068006845
:1018500000F0010008B1012000E00020B0B90198BB
:1018600070B10198806800F00300012806D101984A
:10187000006800F0010008B1012000E0002028B954
:10188000B86820F4403061680843B860606B012894
:1018900002D04FF4805100E00021607E41EA4030E8
:1018A000E1680843A168084305432020005D012842
:1018B00013D1607E38B9A08C401E4FF4803141EACC
:1018C0004040054309E0206C20F0020040F0200079
:1018D0002064606C40F001006064A06A012803D0BD
:1018E000D4E90A01084305432068806800F00C0031
:1018F00008B1012000E0002068B92068C06844F207
:10190000020188432168C860207E810394F830007A
:1019100041EA400005432068C06800E020E0184923
:10192000084028432168C8602069012809D120683F
:10193000006B20F00F00E169491E0843216808632D
:1019400005E02068006B20F00F002168086300208C
:101950006064206C20F0020040F00100206406E08A
:10196000206C20F0020040F0100020640126304678
:10197000EFE600006800002040420F000003005026
:1019800007C0F0FF7047000010B586B00446142170
:1019900001A8FEF75DFC2068B0F1A04F3CD100BF6C
:1019A0001E48406940F080501C4948610846406923
:1019B00000F08050009000BF00BF00BF08464069A3
:1019C00040F4002048610846406900F4002000907F
:1019D00000BF00BF00BF0846406940F400304861C6
:1019E0000846406900F40030009000BF00BF0220AC
:1019F0000190032002900020039001A9084800F004
:101A000063F901200190032002900020039001A9B6
:101A10004FF0904000F058F906B010BD00100240A1
:101A200000080048014691F82100022808D004204F
:101A3000886300BF002081F8200000BF01207047AC
:101A40000868006820F00E000A68106008680068E6
:101A500020F001000A68106091F8402001209040B9
:101A6000CA6B5060012081F8210000BF002081F87E
:101A7000200000BF00BFE2E770B50446002594F8DF
:101A80002100022803D00420A06301251EE0206865
:101A9000006820F00E00216808602068006820F0CF
:101AA00001002168086094F8401001208840E16B33
:101AB0004860012084F8210000BF002084F8200045
:101AC00000BF606B10B12046616B8847284670BD2F
:101AD00070B50446E06B05682068066894F840100D
:101AE000042088402840D0B106F00400B8B1206836
:101AF000006800F0200028B92068006820F0040089
:101B00002168086094F8401004208840E16B486028
:101B1000E06A00284ED02046E16A88474AE094F8FF
:101B2000401002208840284008B306F00200F0B1BF
:101B30002068006800F0200040B92068006820F0AC
:101B40000A0021680860012084F8210094F8401000
:101B500002208840E16B486000BF002084F820002C
:101B600000BFA06A30B32046A16A884722E094F8FB
:101B70004010082088402840E0B106F00800C8B1B5
:101B80002068006820F00E002168086094F840107A
:101B900001208840E16B48600120A06384F82100A7
:101BA00000BF002084F8200000BF206B10B1204649
:101BB000216B884770BD70B5044600250CB9012023
:101BC00070BD022084F821002068056843F6F0709B
:101BD0008543D4E901010843E168084321690843CA
:101BE00061690843A1690843E16908430543206826
:101BF00005602046FEF75CFE0020A063012084F80B
:101C00002100002084F8200000BFD9E72DE9F04131
:101C100004460D4616461F464FF0000800BF94F8D4
:101C20002000012802D10220BDE8F081012084F8C3
:101C3000200000BF94F8210001282CD1022084F854
:101C400021000020A0632068006820F001002168C6
:101C500008603B46324629462046FEF737FEE06ADA
:101C600030B12068006840F00E00216808600BE089
:101C70002068006840F00A00216808602068006859
:101C800020F00400216808602068006840F001002E
:101C90002168086006E000BF002084F8200000BF33
:101CA0004FF002084046BFE77047000010B50446F9
:101CB00004480068204020B1024804602046FFF735
:101CC000F3FF10BD1404014078B503460022C6E0BE
:101CD000012696400D6805EA0604002C72D04D6876
:101CE000012D08D04D68022D05D04D68112D02D070
:101CF0004D68122D13D1986856000325B540A843AE
:101D00005600CD68B5402843986058680125954035
:101D1000A8430D79C5F30015954028435860D8684D
:101D200056000325B540A84356008D68B5402843AA
:101D3000D8604D68022D02D04D68122D13D1D608FF
:101D400003F1200555F826005507EE0E0F25B54086
:101D5000A8435607F60E0D69B5402843D60803F18F
:101D6000200545F82600186856000325B540A8430D
:101D70000D7905F003055600B540284318604D68FD
:101D800005F08055B5F1805F68D100BF374DAD6972
:101D900045F00105354EB5613546AD6905F00105E3
:101DA000009500BF00BF4FEAB635960855F82600EB
:101DB00095072E0F0F25B540A843B3F1904F02D1E0
:101DC000002510E04AE02A4DAB4201D101250AE08E
:101DD000284DAB4201D1022505E0274DAB4201D190
:101DE000032500E005259607360FB5402843234D0F
:101DF000960845F82600224D2868A0434D6805F452
:101E00008035B5F5803F00D120431D4D28602D1D44
:101E10002868A0434D6805F40035B5F5003F00D1B2
:101E20002043174D2D1D28602D1D2868A0434D68A7
:101E300005F48015B5F5801F00D12043104D0835FD
:101E400028602D1D2868A0434D6805F40015B5F5E0
:101E5000001F00D120430A4D0C352860521C0D682C
:101E6000D540002D7FF434AF78BD00000010024053
:101E70000004004800080048000C00480800014029
:101E8000000401400AB1816100E0816270470000F6
:101E900001480068704700005C00002003480068AB
:101EA0000349097808440149086070475C00002034
:101EB0006400002010B50848006840F01000064992
:101EC0000860032000F09EF8002000F007F800F002
:101ED0002BF8002010BD00000020024070B5044621
:101EE0000E4800784FF47A71B1FBF0F00C490968A4
:101EF000B1FBF0F5284601F0DDF808B1012070BD16
:101F0000102C07D200222146501E00F03DF8054853
:101F1000046001E00120F2E70020F0E76400002007
:101F2000680000206000002008B500BF0D488069EF
:101F300040F001000B4988610846806900F001000B
:101F4000009000BF00BF00BF0846C06940F080504D
:101F5000C8610846C06900F08050009000BF00BF13
:101F600008BD00000010024001460846002809DBB9
:101F700000F01F0301229A4043099B0003F1E02374
:101F8000C3F8002100BF70472DE9F05F80460D4681
:101F90001646002704F0C4F9074639462A46334658
:101FA00001F00700C0F1070ABAF1040F02D94FF09F
:101FB000040A01E0C0F1070AD14600F1040ABAF1AF
:101FC000070F02D24FF0000A01E0A0F1030AD44645
:101FD0004FF0010A0AFA09FAAAF1010A0AEA020A0A
:101FE0000AFA0CFA4FF0010B0BFA0CFBABF1010BE8
:101FF0000BEA030B4AEA0B042146404604F098F929
:10200000BDE8F09F00BF00F00702064B19684FF6CD
:10201000FF031940044B0B4343EA0221014B1960B3
:1020200000BF70470CED00E00000FA05F8B504466B
:10203000002600250027206800F48030B0F5803F9E
:1020400074D1A448C06900F0805070B900BFA148A5
:10205000C06940F080509F49C8610846C06900F0DF
:102060008050009000BF00BF01279B48006800F42B
:102070008070B0B99848006840F480709649086054
:10208000FFF706FF064606E0FFF702FF801B642805
:1020900001D90320F8BD9048006800F48070002842
:1020A000F2D08C48006A00F44075002D6CD0A088F6
:1020B00000F44070A84267D08648006A20F440755A
:1020C0000120010491FAA1F1B1FA81F1834A02EBF6
:1020D0008101C1F8000400204FF4803191FAA1F190
:1020E000B1FA81F102EB8101C1F80004794805627F
:1020F00005F00100B8B3FFF7CBFE064608E0FFF796
:10210000C7FE801B41F28831884201D90320C1E714
:102110004020022191FAA1F1B1FA81F10843012195
:10212000B1EB601F03D16B4800681FE03BE040202B
:10213000022191FAA1F1B1FA81F108430221B1EB38
:10214000601F02D16348006A10E04020022191FA2A
:10215000A1F1B1FA81F108430421B1EB601F03D171
:102160005C48406802E00FE05A48406A4021022281
:1021700092FAA2F2B2FA82F2114301F01F02012197
:10218000914008400028BAD05248006A20F44070BC
:10219000616808434F490862012F04D10846C069AD
:1021A00020F08050C861207800F0010038B1494823
:1021B000006B20F00300A1680843464908632078BB
:1021C00000F02000202807D14248006B20F01000CA
:1021D000E16808433F490863206800F40030B0F527
:1021E000003F07D13B48406820F48000216B084342
:1021F00038494860207800F04000402807D1354831
:10220000006B20F0200021690843324908632088D0
:1022100000F40040B0F5004F07D12E48006B20F0CD
:102220004000616908432B490863208800F400706E
:10223000B0F5007F07D12748406820F40000E1692D
:10224000084324494860207800F08000802807D1A6
:102250002048C06A20F4F870A16908431D49C8628B
:10226000208800F48050B0F5805F07D11948006BDA
:1022700020F48070216A084316490863206800F43E
:102280008020B0F5802F07D11248006B20F48060C9
:10229000616A08430F490863206800F40020B0F524
:1022A000002F07D10B48006B20F40060A16A08439F
:1022B00008490863206800F48010B0F5801F07D13A
:1022C0000448006B20F40050E16A084301490863A8
:1022D0000020DFE600100240007000400000424293
:1022E00070B504460D4600260CB9012070BDA24809
:1022F000006800F00700A8420ED29F48006820F056
:10230000070028439C4908600846006800F0070061
:10231000A84201D00120E9E7207800F0020002285D
:1023200007D19648406820F0F000A168084393491F
:102330004860207800F0010000287CD06068012807
:102340003BD12020010391FAA1F1B1FA81F10843B8
:102350000121B1EB601F02D1884800681DE02020F8
:10236000010391FAA1F1B1FA81F108430221B1EB25
:10237000601F02D18148006A0FE02020010391FA1A
:10238000A1F1B1FA81F108430421B1EB601F02D140
:102390007A48406801E07948406A20210A0392FAAD
:1023A000A2F2B2FA82F2114301F01F020121914020
:1023B000084000287CD1012098E7606802283BD1C2
:1023C0002020010591FAA1F1B1FA81F10843012120
:1023D000B1EB601F02D1694800681DE020200105B3
:1023E00091FAA1F1B1FA81F108430221B1EB601F2A
:1023F00002D16248006A0FE02020010591FAA1F1A4
:10240000B1FA81F108430421B1EB601F02D15B48AE
:10241000406801E05948406A20210A0592FAA2F278
:10242000B2FA82F2114301F01F02012191400840EB
:10243000E8BB01205AE758E02020022191FAA1F1DF
:10244000B1FA81F108430121B1EB601F02D14B4881
:1024500000681DE02020022191FAA1F1B1FA81F17A
:1024600008430221B1EB601F02D14448006A0FE02B
:102470002020022191FAA1F1B1FA81F1084304214F
:10248000B1EB601F02D13D48406801E03B48406A23
:102490002021022292FAA2F2B2FA82F2114301F052
:1024A0001F0201219140084008B901201EE7FFE703
:1024B0003248406820F00300616808432F494860B3
:1024C000FFF7E6FC064608E0FFF7E2FC801B41F25E
:1024D0008831884201D9032008E72848406800F085
:1024E0000C006168B0EB810FEED12348006800F06A
:1024F0000700A8420ED92048006820F007002843B2
:102500001D4908600846006800F00700A84201D095
:102510000120EBE6207800F00400042807D11748DA
:10252000406820F4E060E16808431449486020787E
:1025300000F00800082808D11048406820F46050D6
:10254000216940EAC1000D49486000F051F80B498B
:10255000496801F0F001F02292FAA2F2B2FA82F296
:10256000D140074A515CC8400649086006480068E7
:10257000FFF7B4FC0020B9E6002002400010024042
:1025800044730008680000206000002001480068D3
:10259000704700006800002000B5FFF7F7FF07490B
:1025A000496801F4E0614FF4E06292FAA2F2B2FAF3
:1025B00082F2D140024A515CC84000BD0010024086
:1025C0005473000800B5FFF7E1FF0749496801F4BB
:1025D00060514FF4605292FAA2F2B2FA82F2D14004
:1025E000024A515CC84000BD00100240547300080C
:1025F0002DE9F0410024002500270026A0461F48B1
:10260000446804F00C0078B3042802D008282CD1C8
:1026100002E0DFF86C802CE004F470104FF47011CD
:1026200091FAA1F1B1FA81F1C84016490E5C134844
:10263000C06A00F00F000F2191FAA1F1B1FA81F107
:10264000C84011490D5C04F4803040B12A46002393
:102650000B481946FDF7B4FDA0FB067102E00B48DC
:10266000A0FB0671B84604E000E000BFDFF8108070
:1026700000BF00BF4046BDE8F081000000100240EE
:1026800000127A00247300083473000800093D002A
:10269000F8B504460CB90120F8BD207800F001001F
:1026A00000287BD0FA48406800F00C0004280CD0C9
:1026B000F748406800F00C00082845D1F44840680D
:1026C00000F48030B0F5803F3ED12020010391FA24
:1026D000A1F1B1FA81F108430121B1EB601F02D1F0
:1026E000EB4800681DE02020010391FAA1F1B1FA46
:1026F00081F108430221B1EB601F02D1E448006A76
:102700000FE02020010391FAA1F1B1FA81F1084311
:102710000421B1EB601F02D1DD48406801E0DC48D4
:10272000406A20210A0392FAA2F2B2FA82F211431D
:1027300001F01F020121914008400028B1D06068DB
:1027400000282BD10120A7E700BF6068B0F5803FCB
:1027500006D1CF48006840F48030CD49086029E0B8
:10276000606858B9CA48006820F48030C8490860D9
:102770000846006820F4802008601BE06068B0F51F
:10278000A02F0CD1C248006840F48020C0490860E6
:102790000846006840F4803008600BE0A1E0BC48C7
:1027A000006820F48030BA4908600846006820F4C8
:1027B0008020086000BFB648C06A20F00F00A16802
:1027C0000843B349C8626068A0B3FFF761FB0546E0
:1027D00006E0FFF75DFB401B642801D903205BE79F
:1027E0002020010391FAA1F1B1FA81F108430121FE
:1027F000B1EB601F02D1A64800681EE02020010353
:1028000091FAA1F1B1FA81F108430221B1EB601F05
:1028100002D19F48006A10E02020010391FAA1F143
:10282000B1FA81F108430421B1EB601F03D198484C
:10283000406802E010E09648406A20210A0392FABC
:10284000A2F2B2FA82F2114301F01F02012191407B
:1028500008400028BDD044E0FFF71AFB054606E01B
:10286000FFF716FB401B642801D9032014E7202042
:10287000010391FAA1F1B1FA81F108430121B1EB11
:10288000601F02D1824800681DE02020010391FAF8
:10289000A1F1B1FA81F108430221B1EB601F02D12D
:1028A0007B48006A0FE02020010391FAA1F1B1FA00
:1028B00081F108430421B1EB601F02D174484068E4
:1028C00001E07348406A20210A0392FAA2F2B2FAA8
:1028D00082F2114301F01F020121914008400028BB
:1028E000BED1207800F0020002285CD16848406820
:1028F00000F00C0050B16648406800F00C00082859
:1029000052D16348406800F48030E8BB20200221A7
:1029100091FAA1F1B1FA81F108430121B1EB601FF5
:1029200002D15B4800681DE02020022191FAA1F14C
:10293000B1FA81F108430221B1EB601F02D1544882
:10294000006A0FE02020022191FAA1F1B1FA81F191
:1029500008430421B1EB601F02D14D48406801E0FB
:102960004B48406A2021022292FAA2F2B2FA82F285
:10297000114301F01F0201219140084028B1206954
:10298000012802D0012087E60EE04148006820F0CF
:10299000F800F82292FAA2F2B2FA82F2616991404A
:1029A00008433B490860B1E0206970B3012191FA06
:1029B000A1F0B0FA80F0374A42F82010FFF768FA29
:1029C000054606E0FFF764FA401B022801D9032000
:1029D00062E62020022191FAA1F1B1FA81F10843C7
:1029E0000121B1EB601F02D1294800681EE02020C0
:1029F000022191FAA1F1B1FA81F108430221B1EB70
:102A0000601F03D12248006A10E02CE02020022140
:102A100091FAA1F1B1FA81F108430421B1EB601FF1
:102A200002D11B48406801E01948406A2021022277
:102A300092FAA2F2B2FA82F2114301F01F020121CE
:102A4000914008400028BDD01148006820F0F800EF
:102A5000F82292FAA2F2B2FA82F261699140084336
:102A60000B49086052E00020012191FAA1F1B1FA6E
:102A700081F1084A42F82100FFF70AFA05460BE007
:102A8000FFF706FA401B022806D9032004E60000DF
:102A900000100240000042422020022191FAA1F1E0
:102AA000B1FA81F108430121B1EB601F02D1FB486B
:102AB00000681DE02020022191FAA1F1B1FA81F114
:102AC00008430221B1EB601F02D1F448006A0FE015
:102AD0002020022191FAA1F1B1FA81F108430421E9
:102AE000B1EB601F02D1ED48406801E0EB48406A5D
:102AF0002021022292FAA2F2B2FA82F2114301F0EC
:102B00001F020121914008400028B9D1207800F02F
:102B10000800082851D1A06980B3012191FAA1F0E1
:102B2000B0FA80F0DE4A02EB8000C0F88014FFF7B4
:102B3000AFF9054606E0FFF7ABF9401B022801D9C3
:102B40000320A9E56020022191FAA1F1B1FA81F1F7
:102B500008430121B1EB601F02D1D04800681EE09C
:102B60006020022191FAA1F1B1FA81F1084302211A
:102B7000B1EB601F03D1C948006A10E01EE060207D
:102B8000022191FAA1F1B1FA81F108430421B1EBDC
:102B9000601F02D1C148406801E0C048406A60211E
:102BA000022292FAA2F2B2FA82F2114301F01F025B
:102BB0000121914008400028BDD04FE000200121B4
:102BC00091FAA1F1B1FA81F1B54A02EB8101C1F8A4
:102BD0008004FFF75DF9054606E0FFF759F9401B51
:102BE000022801D9032057E56020022191FAA1F1C2
:102BF000B1FA81F108430121B1EB601F02D1A7486E
:102C000000681DE06020022191FAA1F1B1FA81F182
:102C100008430221B1EB601F02D1A048006A0FE017
:102C20006020022191FAA1F1B1FA81F10843042157
:102C3000B1EB601F02D19948406801E09748406AB3
:102C40006021022292FAA2F2B2FA82F2114301F05A
:102C50001F020121914008400028BED1207800F0D9
:102C60000400042873D100278C48C06900F080500C
:102C700070B900BF8948C06940F080508749C86179
:102C80000846C06900F08050009000BF00BF0127D7
:102C90008448006800F48070B0B98248006840F44D
:102CA000807080490860FFF7F3F8054606E0FFF7FB
:102CB000EFF8401B642801D90320EDE4794800684F
:102CC00000F480700028F2D000BFE068012806D12F
:102CD0007248006A40F001007049086227E0E0682D
:102CE00058B96E48006A20F001006C490862084635
:102CF000006A20F00400086219E0E06805280BD1A2
:102D00006648006A40F00400644908620846006AA8
:102D100040F0010008620AE06048006A20F001000B
:102D20005E4908620846006A20F00400086200BF9D
:102D3000E068B8B3FFF7ACF8054609E0FFF7A8F87C
:102D4000401B41F28831884202D90320A4E48BE081
:102D50004020022191FAA1F1B1FA81F10843012149
:102D6000B1EB601F02D14D4800681EE040200221F7
:102D700091FAA1F1B1FA81F108430221B1EB601F90
:102D800002D14648006A10E04020022191FAA1F1E8
:102D9000B1FA81F108430421B1EB601F03D13F4830
:102DA000406802E010E03D48406A4021022292FA69
:102DB000A2F2B2FA82F2114301F01F020121914006
:102DC00008400028BAD046E0FFF762F8054608E060
:102DD000FFF75EF8401B41F28831884201D9032099
:102DE0005AE44020022191FAA1F1B1FA81F108439D
:102DF0000121B1EB601F02D1284800681DE040208E
:102E0000022191FAA1F1B1FA81F108430221B1EB5B
:102E1000601F02D12148006A0FE04020022191FA90
:102E2000A1F1B1FA81F108430421B1EB601F02D195
:102E30001A48406801E01948406A4021022292FA8B
:102E4000A2F2B2FA82F2114301F01F020121914075
:102E500008400028BCD1012F05D11048C06920F0DE
:102E600080500E49C86100BFE069002874D00B484B
:102E7000406800F00C0008286FD0E06902286DD18E
:102E800000204FF0807191FAA1F1B1FA81F1044A6A
:102E900042F82100FEF7FCFF05460CE0001002405E
:102EA0000000424200700040FEF7F2FF401B022883
:102EB00001D9032047E42020010591FAA1F1B1FADC
:102EC00081F108430121B1EB601F02D1774800680E
:102ED0001DE02020010591FAA1F1B1FA81F108432A
:102EE0000221B1EB601F02D17048006A0FE0202080
:102EF000010591FAA1F1B1FA81F108430421B1EB86
:102F0000601F02D16948406801E06848406A20219A
:102F10000A0592FAA2F2B2FA82F2114301F01F02FC
:102F20000121914008400028BED1D4E9081008438F
:102F30005E49496821F4741108435C4948600120E6
:102F4000010691FAA1F1B1FA81F1594A42F8210042
:102F5000FEF79EFF054609E0A5E092E041E0FEF79E
:102F600097FF401B022801D9032038E420200105E7
:102F700091FAA1F1B1FA81F108430121B1EB601F8F
:102F800002D14A4800681DE02020010591FAA1F114
:102F9000B1FA81F108430221B1EB601F02D143482D
:102FA000006A0FE02020010591FAA1F1B1FA81F148
:102FB00008430421B1EB601F02D13C48406801E0A6
:102FC0003A48406A20210A0592FAA2F2B2FA82F245
:102FD000114301F01F020121914008400028BED09A
:102FE00061E000204FF0807191FAA1F1B1FA81F116
:102FF0002F4A42F82100FEF74BFF054606E0FEF798
:1030000047FF401B022801D903202FE4202001059F
:1030100091FAA1F1B1FA81F108430121B1EB601FEE
:1030200002D1224800681DE02020010591FAA1F19B
:10303000B1FA81F108430221B1EB601F02D11B48B4
:10304000006A0FE02020010591FAA1F1B1FA81F1A7
:1030500008430421B1EB601F02D11448406801E02D
:103060001248406A20210A0592FAA2F2B2FA82F2CC
:10307000114301F01F020121914008400028BED1F8
:1030800011E0E069012800D17DE40848466806F4B3
:103090008031206A814204D106F47011606A814255
:1030A00001D001206FE400206DE400000010024018
:1030B0000000424270B504462546681EB0F1807F8C
:1030C00001D301200FE0681E4FF0E02148610F217D
:1030D0004FF0FF3003F02CF900204FF0E021886121
:1030E00007200861002070BD7047704770470000DE
:1030F00010B50346002200BF93F83C00012801D11F
:10310000022010BD012083F83C0000BF22F0FF0028
:10311000CC6840EA040222F440708C6840EA040261
:1031200022F480604C6840EA040222F400600C68DB
:1031300040EA040222F480500C6940EA040222F4BE
:1031400000504C6940EA040222F480408C6A40EA54
:10315000040222F470200C8B40EA04420D4C1868E3
:10316000A0420ED122F470008C8C40EA045222F06E
:103170008070CC6940EA040222F000700C6A40EAD8
:1031800004021868426400BF002083F83C0000BFBE
:1031900000BFB6E7002C014030B502460B4600BF29
:1031A00092F83C00012801D1022030BD012082F8B4
:1031B0003C0000BF022082F83D00106841681068A2
:1031C0008468154D1068A84203D121F47001586835
:1031D000014321F0700118680143106841600E4DF1
:1031E0001068A84207D01068B0F1804F03D00B4D93
:1031F0001068A84205D124F0800498680443106840
:103200008460012082F83D0000BF002082F83C006D
:1032100000BF00BFC9E70000002C01400040014092
:1032200010B504460CB9012010BD94F83D0028B932
:10323000002084F83C00204600F02AF8022084F8A0
:103240003D00211D206802F037FB012084F8480072
:1032500000BF84F83E0001213F2001554020015568
:1032600041200155422001554320015500BF00BFB8
:10327000012084F84400452001554620015547208F
:10328000015500BF012084F83D000020CCE700007C
:1032900008B5124A016891420DD100BF10498969F1
:1032A00041F400610E4A91611146896901F400619F
:1032B000009100BF11E00B4A016891420DD100BF9F
:1032C0000749C96941F01001054AD1611146C96930
:1032D00001F01001009100BF00BF08BD002C0140AB
:1032E00000100240001000402DE9F04104460D4658
:1032F00000BF94F83C00012802D10220BDE8F08113
:10330000012084F83C0000BF022084F83D002068C2
:1033100086683748064026F47F462068866028681D
:10332000502833D00CDC202850D004DC00284BD0AF
:10333000102851D149E0302849D040284CD139E0FB
:1033400060282DD0702807D0B0F5805F03D0B0F58D
:10335000005F41D10DE040E0D5E902136A682068C2
:1033600002F0FDFA2068866846F0770620688660DD
:1033700033E0D5E902136A68206802F0F0FA2068A9
:10338000806840F480402168886026E0EA686968C7
:10339000206802F083FC5021206802F0EBFA1CE068
:1033A000EA686968206802F08CFC6021206802F0FD
:1033B000E1FA12E0EA686968206802F06FFC4021D7
:1033C000206802F0D7FA08E000BF00BF00BF2968FC
:1033D000206802F0CFFA00E000BF00BF012084F8AF
:1033E0003D0000BF002084F83C0000BF00BF85E71F
:1033F00088FFFEFF2DE9F04104460D4614B9012077
:10340000BDE8F08194F83D0028B9002084F83C0024
:10341000204600F055F8022084F83D0020688068BE
:103420002649084021688860211D206802F044FA7E
:103430002068D0F80880206886692068076A2868B4
:1034400040EA080840F203308643A969A86840EAC8
:103450000120064340F60C4086434FF2F0008643BD
:10346000E969E86840EA0120064328690001296A01
:1034700040EA0130064327F0220727F088076969F0
:10348000686840EA011007432068C0F80880206897
:10349000866120680762012084F8480084F83E00B5
:1034A00001213F200155012084F8440045200155A9
:1034B000012084F83D000020A2E70000F8BFFEFFD5
:1034C00010B586B00446142101A8FCF7C1FE20689F
:1034D000B0F1804F43D100BF2248C06940F00100E5
:1034E0002049C8610846C06900F00100009000BF93
:1034F00000BF00BF0846406940F4003048610846FC
:10350000406900F40030009000BF00BF00BF0846D3
:10351000406940F4802048610846406900F48020FA
:10352000009000BF00BF4FF40040019002200290C5
:103530000020039004900120059001A94FF09040D5
:10354000FEF7C2FB082001900220029000200390A9
:1035500004900120059001A90348FEF7B5FB06B0D1
:1035600010BD00000010024000040048704710B574
:10357000044620680069C0F34000D8B12068C068E4
:10358000C0F34000B0B16FF0020021680861012073
:1035900020772068806900F0030018B12046FFF70B
:1035A000E5FF05E0204600F0EDF8204600F0D7F9F1
:1035B0000020207720680069C0F38000D8B120681F
:1035C000C068C0F38000B0B16FF0040021680861EA
:1035D000022020772068806900F4407018B12046EE
:1035E000FFF7C4FF05E0204600F0CCF8204600F0CD
:1035F000B6F90020207720680069C0F3C000D8B178
:103600002068C068C0F3C000B0B16FF00800216846
:103610000861042020772068C06900F0030018B119
:103620002046FFF7A3FF05E0204600F0ABF8204658
:1036300000F095F90020207720680069C0F30010A1
:10364000D8B12068C068C0F30010B0B16FF01000AE
:1036500021680861082020772068C06900F4407064
:1036600018B12046FFF782FF05E0204600F08AF8F7
:10367000204600F074F9002020772068006900F0EF
:10368000010058B12068C06800F0010030B16FF04F
:10369000010021680861204600F018FA20680069DE
:1036A000C0F3C01058B12068C068C0F3C01030B17A
:1036B0006FF08000216808612046FFF716FD206842
:1036C0000069C0F3002058B12068C068C0F3C01082
:1036D00030B16FF48070216808612046FFF704FD67
:1036E00020680069C0F3801058B12068C068C0F33A
:1036F000801030B16FF0400021680861204600F072
:10370000E6F920680069C0F3401058B12068C0682D
:10371000C0F3401030B16FF02000216808612046EE
:10372000FFF7E4FC10BD000010B586B0044614217C
:1037300001A8FCF78DFD1149206888421CD100BF0B
:103740000F48406940F400300D494861084640691F
:1037500000F40030009000BF00BF4FF4E060019023
:10376000022002900020039004900620059001A9F9
:103770004FF09040FEF7A8FA06B010BD002C0140B3
:1037800000100240704770B504460D46164600BF53
:1037900094F83C00012801D1022070BD012084F87A
:1037A0003C0000BF0C2E51D005DC4EB1042E1ED0C3
:1037B000082E7AD133E0102E60D0142EF9D175E0A6
:1037C0002946206802F0E0F82068806940F008008F
:1037D000216888612068806920F004002168886180
:1037E00020688069296908432168886177E0294653
:1037F000206802F015F92068806940F400602168B3
:1038000088612068806920F4806021688861206870
:103810008069296940EA0120216888615FE02946C2
:10382000206802F04FF92068C06940F00800216864
:10383000C8612068C06920F004002168C861206860
:10384000C069296908432168C86148E029462068A1
:1038500002F088F92068C06940F400602168C861FE
:103860002068C06920F480602168C8612068C06950
:10387000296940EA01202168C86130E029462068B2
:1038800002F0A6F92068406D40F008002168486504
:103890002068406D20F00400216848652068406D74
:1038A000296908432168486519E017E0294620681E
:1038B00002F0C0F92068406D40F40060216848655E
:1038C0002068406D20F48060216848652068406D64
:1038D000296940EA01202168486500E000BF00BF77
:1038E00000BF002084F83C0000BF00BF55E710B5C2
:1038F00004460CB9012010BD94F83D0028B9002001
:1039000084F83C00204600F029F8022084F83D00AD
:10391000211D206801F0D0FF012084F8480000BF7D
:1039200084F83E0001213F200155402001554120EF
:103930000155422001554320015500BF00BF012021
:1039400084F8440045200155462001554720015583
:1039500000BF012084F83D000020CCE7704770478D
:1039600070B504460D4615B994F83E0015E0042DD7
:1039700002D13F20005D10E0082D02D14020005D03
:103980000BE00C2D02D14120005D06E0102D02D18C
:103990004220005D01E04320005D012801D00120AC
:1039A00070BD1DB9022084F83E001AE0042D03D139
:1039B00002213F20015514E0082D03D102214020AF
:1039C00001550EE00C2D03D102214120015508E0E4
:1039D000102D03D102214220015502E00221432093
:1039E000015535B1042D0BD0082D10D00C2D1CD154
:1039F00014E02068C06840F002002168C86015E04B
:103A00002068C06840F004002168C8600EE02068AB
:103A1000C06840F008002168C86007E02068C068FE
:103A200040F010002168C86000E000BF00BF012224
:103A30002946206801F082FF1F49206888420BD088
:103A40001E492068884207D01D492068884203D05B
:103A50001C492068884201D1012000E0002028B1E3
:103A60002068406C40F40040216848641249206896
:103A7000884207D02068B0F1804F03D00F492068FA
:103A8000884210D1206880680F4900EA0106062E9E
:103A90000FD0B6F5803F0CD02068006840F00100E0
:103AA0002168086005E02068006840F00100216896
:103AB0000860002074E70000002C01400040014035
:103AC0000044014000480140070001007047704772
:103AD00070477047704700002DE9F04704462068A2
:103AE000C569206806682068876840F60F0005EA07
:103AF0000009B9F1000F0CD105F0200048B106F023
:103B0000200030B1606E10B12046616E8847BDE87C
:103B1000F087B9F1000F7DD007F0010018B99B487C
:103B200030400028F7D005F0010058B106F480704D
:103B300040B1012021680862D4F8800040F0010003
:103B4000C4F8800005F0020058B107F0010040B150
:103B5000022021680862D4F8800040F00400C4F814
:103B6000800005F0040058B107F0010040B10420C6
:103B700021680862D4F8800040F00200C4F8800098
:103B800005F0080070B106F0200010B907F0010040
:103B900040B1082021680862D4F8800040F0080095
:103BA000C4F8800005F4006060B106F0806048B1A0
:103BB0004FF4006021680862D4F8800040F02000D3
:103BC000C4F88000D4F8800090B305F0200038B12C
:103BD00006F0200020B1606E10B12046616E88476B
:103BE000D4F880A02068806800F04000402802D00F
:103BF0000AF0280028B3204602F0CAF9206880683D
:103C000000F04000402818D12068806820F0400073
:103C1000216800E01CE08860206F50B15C48216F93
:103C20004863206FFDF728FF10B1206F416B884774
:103C30000DE02046FFF74EFF09E02046FFF74AFF60
:103C400005E02046FFF746FF0020C4F880005EE74D
:103C5000206E012874D105F01000002870D006F005
:103C6000100000286CD0102021680862206880684D
:103C700000F0400040283AD1206F006840681FFAE9
:103C800080F8B8F1000F31D0B4F8580040452DDD70
:103C9000A4F85A80206F806920281ED02068006810
:103CA00020F48070216808602068806820F001009E
:103CB000216888602068806820F040002168886062
:103CC0002020E067002020662068006820F01000B7
:103CD00021680860206FFDF7A5FEB4F85800B4F81D
:103CE0005A20801A81B22046FFF7F2FE0FE734F81F
:103CF000580F6188401A1FFA80F86088583CE8B174
:103D0000B8F1000F1AD02068006820F49070216884
:103D100008602068806820F0010021688860202009
:103D2000E0670020206660662068006820F01000D0
:103D30002168086041462046FFF7CAFEE7E6FFE734
:103D400005F4801050B107F4800038B14FF48010B2
:103D5000216808622046FFF7BCFED8E605F0800027
:103D600040B106F0800028B1A06E10B12046A16ECF
:103D70008847CCE605F0400030B106F0400018B1AD
:103D8000204602F020F9C2E600BFC0E62001000490
:103D9000555E000810B504460CB9012010BDA0699D
:103DA00000B100E000BFA06F28B9002084F87400C3
:103DB000204600F029F82420A0672068006820F041
:103DC000010021680860204602F016F9012800D1A0
:103DD000E4E7606A10B1204601F087FF2068406880
:103DE00020F49040216848602068806820F02A0014
:103DF000216888602068006840F001002168086040
:103E0000204601F0EEFFC9E710B586B00446142144
:103E100001A8FCF71DFA6649206888425DD100BF01
:103E20006448806940F4804062498861084680693E
:103E300000F48040009000BF00BF00BF084640690A
:103E400040F4002048610846406900F400200090DA
:103E500000BF00BF3020019002200290002003909C
:103E6000032004900720059001A95348FDF72CFF7B
:103E70005248534908600020486000215048816042
:103E80008021C16000210161416120218161002107
:103E9000C161FDF790FE08B1FCF739FD00BF48484D
:103EA0002067446200BF4548143846490860102026
:103EB00048600021434881608021C1600021016188
:103EC00041618161C161FDF776FE08B1FCF71FFD1C
:103ED00000BF3C48E066446268E03B492068884295
:103EE00064D100BF3348C06940F400303149C86133
:103EF0000846C06900F40030009000BF00BF00BF5A
:103F00000846406940F4003048610846406900F4C2
:103F10000030009000BF00BF0C20019002200290F2
:103F20000020039004900720059001A94FF09040D5
:103F3000FDF7CAFE2148143024490860002048607B
:103F40000021224881608021C1600021016141611E
:103F50008161C161FDF72FFE08B1FCF7D8FC00BFFD
:103F60001A482067446200BF144828301849086086
:103F7000102048600021164881608021C160002126
:103F8000016141618161C161FDF715FE08B1FCF776
:103F9000BEFC00BF0E48E066446200BF002211462E
:103FA0002620FDF7F1FF2620FDF7DEFF06B010BD4D
:103FB000003801400010024000080048580002404C
:103FC000AC020020F0020020004400403403002036
:103FD0007803002070B504460D461646E06F202891
:103FE00021D105B10EB9012070BD00BF94F8740055
:103FF000012801D10220F7E7012084F8740000BFF6
:10400000002020662068406800F4000028B1206885
:10401000006840F0806021680860324629462046EA
:1040200002F0C2F8E0E70220DEE7000010B5044627
:104030001648844214D1164890ED000ABCEEC00A1E
:1040400010EE100A13490870114890ED010A124849
:1040500080ED000A08220E490C48FFF7BBFF13E071
:104060000E4890ED000ABCEEC00A10EE100A094995
:1040700008700A4890ED010A074880ED000A0822FE
:1040800006490748FFF7A6FF10BD0000A401002065
:10409000000000201600002018000020080000206A
:1040A000280200207047000070B504460E461546F1
:1040B000A06F20284AD106B10DB9012070BD00BF04
:1040C00094F87400012801D10220F7E7012084F858
:1040D000740000BF44F84C6FA580E5800020606349
:1040E0002120E062206A4C3C00B31948E16E8862EE
:1040F0001848E16EC8621848E16E08630020E16E5E
:104100004863236803F128022B46E16CE06EFDF75B
:104110007DFD58B11020C4F8800000BF002084F855
:10412000740000BF2020A0670120C7E7402021685D
:10413000086200BF002084F8740000BF2068806817
:1041400040F08000216888600020B7E70220B5E7D2
:104150004F5F0008835F00086D5E0008704770477E
:1041600000BFFEE78213A0EB823212B20A807047D2
:104170008213A0EB823212B20A8070472DE9F04F11
:1041800005460E46002108E0DFF874A13AF811A0B8
:10419000DFF870B12BF811A0491C0B29F4DB002DBE
:1041A00004DA6A424FF0010CE1460AE02A464FF079
:1041B000000C002D02DD4FF0010A01E04FF0000A73
:1041C000D146002E02DA7442012701E0344600276E
:1041D0000020A046114600235EE0002A2BDA611A77
:1041E00001F4003ABAF1000F04D0DFF81CA141EA53
:1041F0000A0A01E0C1F3100A544602EB080101F477
:10420000003ABAF1000F04D0DFF8FCA041EA0A0A34
:1042100001E0C1F3100A524603F1010A0FFA8AFACB
:10422000AAF1010ADFF8DCB03BF81AA0A0EB0A0AF9
:104230000FFA8AF029E0214401F4003ABAF1000FA4
:1042400004D0DFF8C4A041EA0A0A01E0C1F3100A71
:104250005446A2EB080101F4003ABAF1000F04D071
:10426000DFF8A4A041EA0A0A01E0C1F3100A5246AD
:1042700003F1010A0FFA8AFAAAF1010ADFF884B001
:104280003BF81AA082440FFA8AF003F1010A44FABB
:104290000AF842FA0AF15B1C0B2B9EDBB9F1000F06
:1042A00027D0CFB1BCF1000F09D0A0F5C8418839A3
:1042B0008A461AF5004F00DA144908B21EE046F2A9
:1042C000884AAAEB0001AAEB000ABAF5004F01DB0D
:1042D00047F6FF7108B211E0BCF1000F0ED0414269
:1042E000C0F1000ABAF5004F01DB47F6FF7108B2D2
:1042F00004E017B146F2884000E00020BDE8F08FEE
:10430000246B0008BC0300200000FEFF0080FFFFBC
:1043100000B591B018210BA8FBF79AFF282101A83E
:10432000FBF796FF4FF0A0402C4908604FF4403057
:104330004860002129488160012101610021417606
:1043400080F82010C162012181620021C160012139
:10435000C161002180F830100821416100210176FF
:104360004163FDF7EDF908B1FCF7D1FA01200B909C
:104370000C9000200E900D900F9010900BA91748F4
:10438000FCF782FE08B1FCF7C2FA0120019002900E
:1043900000200490022007900120039040200A9002
:1043A000002009908DF821008DF820008DF8220062
:1043B0000690059001A90948FCF7ACFA08B1FCF792
:1043C000A6FA072001900220029001A90348FCF7F9
:1043D000A1FA08B1FCF79BFA11B000BD70000020F3
:1043E00008B500BF1648406940F001001449486113
:1043F0000846406900F00100009000BF00BF0022A5
:1044000011460E20FDF7C0FD0E20FDF7ADFD002288
:1044100011460F20FDF7B8FD0F20FDF7A5FD002286
:1044200011461020FDF7B0FD1020FDF79DFD002284
:1044300011461120FDF7A8FD1120FDF795FD08BDDF
:104440000010024000B587B0142102A8FBF700FF5E
:1044500000BF4048406940F400203E49486108469A
:10446000406900F40020019000BF00BF00BF084673
:10447000406940F4003048610846406900F400306B
:10448000019000BF00BF00BF0846406940F4802093
:1044900048610846406900F48020019000BF00BFD9
:1044A00000BF0846406940F48010486108464069F2
:1044B00000F48010019000BF00BF00224FF40051B3
:1044C0002548FDF7DFFC00224FF4E0512348FDF7BB
:1044D000D9FC002204212248FDF7D4FC4FF40050FF
:1044E0000290204803900020049002A91B48FDF789
:1044F000EBFB4FF4806002901A4803900020049078
:1045000002A91548FDF7E0FB4FF40050029001208E
:10451000039000200490059002A90F48FDF7D4FBFA
:104520004FF4E05002900120039000200490059089
:1045300002A90A48FDF7C8FB04200290012003905D
:1045400000200490059002A90548FDF7BDFB07B0C7
:1045500000BD0000001002400004004800080048B0
:10456000000C00480000211010B500221146252043
:10457000FDF70AFD2520FDF7F7FC00220121282088
:10458000FDF702FD2820FDF7EFFC0022022112209A
:10459000FDF7FAFC1220FDF7E7FC002202211920AA
:1045A000FDF7F2FC1920FDF7DFFC00220221362086
:1045B000FDF7EAFC3620FDF7D7FC10BD00B599B039
:1045C0000020159016901790189012901390149048
:1045D0001C210BA8FBF73CFE2C216846FBF738FE9C
:1045E00038483949086000204860202136488160F9
:1045F0004FF4C861C16000210161012141610021C6
:104600008161FEF70DFE08B1FCF781F94FF480508F
:10461000159015A92C48FEF767FE08B1FCF777F94D
:104620002948FFF764F908B1FCF771F920201290CE
:1046300000201390149012A92348FEF7ADFD08B195
:10464000FCF765F970200B9000200C900D900E90F7
:104650000F901090119000220BA91B48FFF793F8C0
:1046600008B1FCF754F904220BA91748FFF78BF89F
:1046700008B1FCF74CF908220BA91348FFF783F89F
:1046800008B1FCF744F900200090019002900390DB
:1046900004904FF4005005900020069007904FF0D2
:1046A00000700890002009900A9069460648FEF7BD
:1046B0001FFD08B1FCF72BF90348FFF735F819B0D7
:1046C00000BD0000002C0140C000002000B58DB0EE
:1046D000242104A8FBF7BCFD002001900290039068
:1046E0004FF08040174908600020486000211548BD
:1046F00081604FF6FF71C16000210161816103207B
:104700000490022005900120069000200790089058
:104710000220099001200A9000200B900C9004A91F
:104720000848FEF767FE08B1FCF7F1F80020019099
:10473000039001A90348FEF72FFD08B1FCF7E7F845
:104740000DB000BD0C0100200EB5002000900190BE
:1047500002900F480F4908600020486000210D4872
:1047600081604FF4FA41C16000218161FEF758FD7C
:1047700008B1FCF7CCF82020009000200290694698
:104780000448FEF709FD08B1FCF7C1F80EBD0000B2
:10479000001000405801002010B50E480E49086076
:1047A0000E48486000210C488160C16001610C2105
:1047B0004161002181614FF40041C161002101622A
:1047C0000020054948620846FFF7E4FA08B1FCF703
:1047D0009EF810BD00380140A401002000093D00F2
:1047E00010B50D480D4908600D48486000210B4880
:1047F0008160C16001610C21416100218161C16161
:1048000001620020054948620846FFF7C3FA08B173
:10481000FCF77DF810BD0000004400402802002095
:1048200080841E002DE9F04F2DED048B8DB0F848EB
:10483000008B40F6E32110FB01F0C013F54908623C
:10484000F348808A098C401A00B20790F048C08A69
:1048500040F6E32110FB01F0C013EE49C862EC48BA
:10486000C08B898D401A04B214FB04F08013E9490F
:1048700088620846806AB0F5004F03DB47F6FF7098
:10488000886207E0E348806A10F5004F02DAE248E8
:10489000E0498862079840438013DE494862084631
:1048A000406AB0F5004F03DB47F6FF70486207E04F
:1048B000D848406A10F5004F02DAD748D549486217
:1048C000D648008AD349098D401AD249898C401AAA
:1048D00000B20990CE48818B008B41F2351210FB5B
:1048E00002F0A1EB2041BDF924200798504301EBD1
:1048F000A03044F2570110FB01F0C549098C01EBCF
:10490000A04000B20B90C348018C0B98401A00B233
:104910000790BF48408BBE49C98A41F2351211FB4E
:1049200002F1A0EB2140BDF92410614300EBA1305E
:1049300044F2570110FB01F0B549498C01EBA0404E
:1049400000B20C90B348818D0C98401A00B20890C8
:10495000BDF920209110079A9010FFF70FFC40102E
:104960000990BDF92400002806DCBDF8240046F2B9
:104970008841084400B20990BDF8240080B246F294
:10498000884190FBF1F201FB120080B20290A04836
:1049900090ED040ADFEDA20A20EE200AF1EE000AF3
:1049A00020EE200A9B4880ED060A90ED060AB5EE3F
:1049B000C00AF1EE10FA19D290ED060A10EE101AA4
:1049C0000846FBF750FC41EC190BB0EE490AF0EE3B
:1049D000690A01F0C1FCB0EE408AF0EE608A51EC49
:1049E000180BFBF753FC8B49C86119E0894890ED1F
:1049F000060A10EE101A0846FBF735FC41EC190BBD
:104A0000B0EE490AF0EE690A01F032FDB0EE408ADC
:104A1000F0EE608A51EC180BFBF738FC7D49C86159
:104A20007C48D0ED070AB0EE600A02F003F838B90E
:104A30007848D0ED070AB0EE600A01F0E3FF28B134
:104A40009FED780A734880ED070A1BE0714890EDEE
:104A5000070A10EE101A0846FBF705FC41EC190B8B
:104A60009FED711BB0EE490AF0EE690A01F08CFD72
:104A7000B0EE408AF0EE608A51EC180BFBF706FCB2
:104A80006449C8616248418E0298401A00B200032E
:104A900060498862886A664901F020FE644948439B
:104AA0005C49896A081A634908445A498862886AD5
:104AB0005F4901F013FE5E4948435649896A081A66
:104AC0005C4949420844001340F2712148430011F7
:104AD00000B24F49898EA0EB4100401001B24D4811
:104AE00090ED070AB5EEC00AF1EE10FA0AD290ED89
:104AF000070AB1EE400ABCEEC00A10EE100A4042AE
:104B000000B207E0434890ED070ABCEEC00A10EE81
:104B1000100A00B244F205325043801300B2414300
:104B2000C8000B2201460090434801F04DFE384971
:104B3000C9680844374908620846006A801100B213
:104B40000A9043F227410A9810FB01F000130FFA74
:104B500080FB2F48408F47F6FF71884204D22C48D3
:104B6000408F401C2A494887294890F8440048B99A
:104B70000120274981F84400042081F843000020E7
:104B80004887C7E0224890F84300012806D0022851
:104B900028D003285FD0042875D175E01C4890F810
:104BA000480030B904201A4981F8430000204887A2
:104BB00017E01748408FB0F57A6F06D305201449E7
:104BC00081F84300002048870BE000201149088647
:104BD0000F4981F84500012081F84600002081F846
:104BE000470096E00A4890F8480030B90420084988
:104BF00081F84300002048872CE00548408FB0F53D
:104C0000FA6F1BD30320024981F8430022E0000021
:104C1000FC030020BC0300200080FFFF3C6B000869
:104C20000000164500000000000000000000F040F9
:104C3000D57E48066B3F2403EBE2361A0120F74984
:104C400008860020F64981F8450081F846000120D9
:104C500081F847005DE0F24890F8480030B9042040
:104C6000EF4981F84300002048870BE00120EB4921
:104C700008860020EA4981F8450081F846000120B5
:104C800081F8470045E01CE0E548408FB0F57A7FA9
:104C90000AD3E34890F8480030B10120E04981F898
:104CA0004300002048870BE00020DC4908860120F3
:104CB000DB4981F84500002081F8460081F8470073
:104CC00027E0D748408F44F62061884209D3BBF5DE
:104CD000CD7F06DB0220D24981F8430000204887BF
:104CE00016E0CF4890F8480030B90420CC4981F84C
:104CF0004300002048870BE00120C84908860020B7
:104D0000C74981F8450081F84600012081F8470035
:104D100000BF00BFC24890F8400000287DD1C148C4
:104D20000078002879D0BD48008E08B9012000E045
:104D300000200190019818B9B94890F8420028B1B4
:104D4000B94890ED000AB64880ED000AB44890F8E2
:104D5000470018B3B24890ED000AF7EE000AB4EE2F
:104D6000E00AF1EE10FA04DDB7EE000A80ED040A65
:104D700019E0AB4890ED000ADFEDAC0AB4EEE00AB2
:104D8000F1EE10FA04D29FEDA90A80ED040A0AE0C0
:104D9000A34890ED000A80ED040A04E01FED5F0ACD
:104DA0009F4880ED040A9E4890ED040ADFEDA00ABA
:104DB00020EE200AD0ED010A9FED9E1A01EE200A96
:104DC000964880ED060A41F233300BFB00F04113A8
:104DD0009348808D40F6CD4210FB02F001EB60302D
:104DE0000FFA80FB8D48D0ED060A00EE10BAB8EE3F
:104DF000C00A9FED911A40EE410A9FED900A20EE05
:104E0000800ADFED8F0A20EE200A10EE101A084605
:104E1000FBF729FA41EC190B00E0F8E0B0EE490A83
:104E2000F0EE690A01F024FBB0EE408AF0EE608AF1
:104E300051EC180BFBF72AFA7849C8610846D0ED07
:104E4000070AB0EE600A01F0F5FD38B97348D0EDFD
:104E5000070AB0EE600A01F0D5FD28B11FED8F0AF8
:104E60006E4880ED070A1BE06C4890ED070A10EED3
:104E7000101A0846FBF7F7F941EC190B1FED961BCA
:104E8000B0EE490AF0EE690A01F07EFBB0EE408A0E
:104E9000F0EE608A51EC180BFBF7F8F95F49C86136
:104EA0005E4890ED070AB5EEC00AF1EE10FA0AD29C
:104EB00090ED070AB1EE400ABCEEC00A10EE100AEF
:104EC000404200B207E0554890ED070ABCEEC00A28
:104ED00010EE100A00B281465148C18D40F2853073
:104EE00009FB00F001EB603000B20990BDF924002D
:104EF00043F65C71884202DD0846099007E0BDF97F
:104F000024005049884202DA4CF2A4000990444837
:104F100090ED000A4C48D0ED000A9FED4C1A11EEBE
:104F2000200A3E4880ED070A90ED070A3E48D0ED82
:104F3000010AB4EEE00AF1EE10FA05DD90ED010A87
:104F4000364880ED070A0FE0344890ED070A3648EE
:104F5000D0ED020AB4EEE00AF1EE10FA04D290EDC0
:104F6000020A2E4880ED070A2D4890F84800F8B153
:104F70002A48008E90B1BDF8240048440FFA80F909
:104F800043F65C70814501DD814603E02D48814593
:104F900000DA814600202149C88605E04FF000096B
:104FA00043F233301D49C8861C48A0F8389005E00C
:104FB00000201A49C8860021184801870120194994
:104FC0004870174890ED000A1448D0ED070A30EEFB
:104FD000200A134880ED000A019840B2104981F878
:104FE00042000E4890ED060A084680ED010AA0F83E
:104FF0002CB00A48008E38B1084690F8480018B125
:10500000BDF92400C88502E000200549C885044890
:1050100090F8400000281BDD01201AE0BC030020AE
:10502000FC030020520000203C6B0008ABAA2A3D84
:105030009A99193FCDCCCC3E0000803800CCCC3FB3
:1050400000008046A4C0FFFF4C0000200E74DA3937
:105050000020FD490870FD4890F8450038B1FB4834
:10506000C08EFB494886F948018FF9488186F74888
:10507000C08EF749498E401A4DF6D50110FB01F05C
:10508000F34988620846806A896AC91200EB515068
:10509000C01243F25D4110FB01F0ED498862084601
:1050A000806A896A491300EBD140401300B2059031
:1050B000E648008FE649898E401A4DF6D50110FB6F
:1050C00001F0E34988620846806A896AC91200EBE8
:1050D0005150C01243F25D4110FB01F0DC4988627F
:1050E0000846806A896A491300EBD140401300B238
:1050F0000990BDF8241005980844084444F6E711C7
:1051000010FB01F0C0130FFA80FB45F27D110298ED
:1051100010FB01F0C01300B2CE490880CB4890F8D4
:10512000480088B1C848807801280DD0C74890F859
:10513000490028B10020C6494887C44981F8490080
:105140000020C24988600886C04890F84800BE49DF
:105150008870C148807C18B30120BC4981F849009F
:10516000084690F8410048B108461922816841F28A
:105170007B4001F036FB00B2B5498887B448808F88
:10518000B249098E00EB01094FEAA930A9EB803042
:1051900000B2AF4948870120AC4981F8410009E0DD
:1051A000AA4890F8490028B10020A9494887A74992
:1051B00081F84900A8480522C168A84801F004FB0D
:1051C000A24989680844A149886008468068A449C2
:1051D000884203DB08469D49886006E09B4880685A
:1051E000002802DC0020994988609948408F97493F
:1051F00008869748008E20B19648B0F900000990C3
:1052000002E09348408F0990BDF92400002805DA98
:1052100009A9BDF92400FEF7A5FF04E009A9BDF91D
:105220002400FEF7A5FFBDF9240000EBC00101EB4F
:105230000010001104B2C4F34F15A4EB4510440252
:10524000884830F91500824988628649681C31F81F
:1052500010007F49098D401A10FB04F07C49098D2C
:1052600001EBA0300FFA80F87E4905F1C80031F952
:105270001000774988627B4905F1C90031F81000B8
:105280007349098D401A10FB04F07149098D01EB37
:10529000A0300FFA80FA0BFB0AF08113059800FB8F
:1052A00008F0A1EBA0306A49098F081A40F6E32103
:1052B00010FB01F0401309906448808CBDF8241065
:1052C00040F2971211FB02F100EB61300FFA80F906
:1052D00043F65C70814501DD814603E0624881450B
:1052E00000DA8146BDF82400484400B20990BDF9B7
:1052F000240043F65C71884201DD0E4608E0BDF9EA
:1053000024005949884201DA0E4601E0BDF92460C3
:10531000059800FB0AF080130BFB08F100EBA130AD
:105320004B49C98E081A40F6E32110FB01F04413E3
:105330004648C08C40F2971114FB01F100EB61303C
:1053400000B20990BDF9240043F65C71884202DD89
:105350000846099007E0BDF924004349884202DA73
:105360004CF2A4000990BDF82400204404B243F696
:105370005C70844201DD044603E03B48844200DA6D
:10538000044604FB04F0811306FB06F001EBA03099
:1053900007B243F6C210874238DB384601F0A6FB5D
:1053A00007460FB94FF4804727B96FF000402849EE
:1053B000886205E04FF0805090FBF7F02449886246
:1053C0002348806AB0F5004F04DB47F6FF702049A0
:1053D000886207E01E48806A10F5004F02DA234811
:1053E0001B49886243F6CD40604380131849098DFC
:1053F00009B24843801304B243F6CD407043801392
:105400001349098D09B24843801306B204FB0AF020
:10541000801306FB08F1A0EBA13007B206FB0AF0EF
:10542000801304FB08F100EBA13000B2069007489E
:1054300090F84800D0B3054890F84500C0B1002569
:1054400000200490039081E052000020FC03002023
:10545000BC030020500000203C6B000879E9263195
:1054600055550300506B0008A4C0FFFF0080FFFFEC
:10547000CD4890F8460030B14FF4057540F2571012
:105480000490039062E043F26D71069848438613DE
:105490004FEA6708C8F10000801B0FFA80FAA6EBFC
:1054A000080006B2B74202DC3C4601E04AE034465E
:1054B000B74201DBB84600E0B046D04500DAD0463E
:1054C000544500DD544608EB040000B240424FEA68
:1054D000600807EB080044F6E71110FB01F08013A9
:1054E00000B24FF4005101EB600040F2416110FB4B
:1054F00001F0C0F38F3506EB080044F6E71110FB0E
:1055000001F0801300B24FF4005101EB600040F253
:10551000416110FB01F0C0F38F30049008EB0A00EA
:1055200044F6E71110FB01F0801300B24FF4005174
:1055300001EB600040F2416110FB01F0C0F38F30DD
:10554000039003E0002500200490039005F1330050
:1055500080B2B0F5C86F04DD4FF4C860934908808D
:105560000CE005F1330080B2662803DA66208F492B
:10557000088003E005F133008C490880049833303B
:1055800080B2B0F5C86F04DD4FF4C8608849088068
:105590000CE00498333080B2662803DA6620844930
:1055A000088003E004983330814908800398333041
:1055B00080B2B0F5C86F04DD4FF4C8607D49088043
:1055C0000CE00398333080B2662803DA662079490C
:1055D000088003E003983330764908807248B0F9B8
:1055E0003C000799484380136F49C98FBDF82020BC
:1055F00011FB02F1A0EBA13000B200EBC00101EB06
:105600004010C01208906848008DBDF9201000EBD2
:10561000613000B207900798B0F5804F02DD4FF47B
:10562000804406E0079810F5804F01DA624C00E0F4
:10563000079CBDF8200020445B49498D084400B216
:105640000790079880100890BDF92000002805DC1D
:10565000BDF8200000F5804000B20890524890F854
:10566000470030B1504890F8480010B14E480485CA
:1056700002E000204C490885BDF8201088B2C1170F
:1056800000EB11510913A0EB0131890009B2089117
:1056900008A9BDF92000FEF76BFDBDF9200000EB65
:1056A000C00101EB0010001104B2C4F34F15A4EBCC
:1056B0004510400200B208903B490B98888205983B
:1056C000C8820846A0F818B04783069888830C98CB
:1056D000C8830B9808840C984884029800B24886C6
:1056E0000A9888863548006AC860084690F84000E5
:1056F000401CC0B21E2803DD002081F8400006E0F7
:10570000294890F84000401C274981F8400026486D
:1057100090F8470058B1244890F8480038B1224822
:10572000A0F82490BDF924001F49C88403E000209C
:105730001D498884C884224905F1C80031F9100048
:105740001E4988621E4905F1C90031F810001B4945
:10575000098D401ABDF8201010FB01F01749098D82
:1057600001EBA03000B210498887154830F91500C8
:10577000124988621249681C31F810000F49098DDE
:10578000401ABDF8201010FB01F00C49098D01EB07
:10579000A03000B20449C887079848850DB0BDEC19
:1057A000048BBDE8F08F0000FC03002044000020C3
:1057B000460000204800002000C0FFFFBC0300207E
:1057C000506B000810B5082001F046F9012004498B
:1057D0008870044890ED000A034880ED000A10BD6F
:1057E000520000203C6B0008FC03002000BFFEE7D5
:1057F00000BFFEE77047704710B5FCF74FFB10BDC8
:1058000000B59DB0282113A8FAF722FD14210EA897
:10581000FAF71EFD342101A8FAF71AFD02201390B1
:10582000012017901020189002201A9000211B913F
:105830004FF460111C9113A8FCF72AFF08B1FBF785
:1058400066F80F200E9002200F90002010904FF469
:10585000806011900020129002210EA8FCF740FDFC
:1058600008B1FBF754F841F20100019000200390C9
:10587000099001A8FCF7DAFB08B1FBF748F81DB066
:1058800000BD00000348006840F470000149086052
:105890007047000088ED00E010B50248FDF767FE94
:1058A00010BD0000C000002010B50248FDF75FFEEB
:1058B00010BD00005801002010B502681B4B984233
:1058C00002D0B0F1804F03D122F070024B681A432E
:1058D000164B98420BD0B0F1804F08D0144B984231
:1058E00005D0144B984202D0134B984203D122F4B6
:1058F0004072CB681A4322F080034C6943EA0402E9
:1059000002608B68C3620B688362084B984208D0C0
:10591000074B984205D0074B984202D0064B98425D
:1059200001D10B6903630123436110BD002C0140C9
:1059300000400140004401400048014030B501F002
:105940001F05012404FA05F3046A9C430462046AF7
:1059500001F01F0502FA05F52C43046230BD30B595
:105960000C46816821F47F4142EA032525432943FF
:10597000816030BD0A46816821F0700142F0070362
:10598000194381607047000030B5056A25F00105B4
:105990000562026A436884691C4D2C4024F00304AC
:1059A0000D682C4322F002028D682A43184DA8424C
:1059B00000D10BE0174DA84200D107E0164DA842D8
:1059C00000D103E0154DA84206D100BF22F0080225
:1059D000CD682A4322F004020D4DA84208D00D4D97
:1059E000A84205D00C4DA84202D00C4DA84207D1C8
:1059F00023F4807323F400734D692B438D692B438B
:105A0000436084614D684563026230BD8FFFFEFFD5
:105A1000002C01400040014000440140004801408A
:105A200030B5056A25F010050562026A436884698D
:105A30001F4D2C4024F440740D6844EA052422F0E4
:105A400020028D6842EA05121A4DA84200D10BE0EF
:105A5000194DA84200D100BF184DA84200D100BF87
:105A6000174DA84207D106E022F08002CD6842EA35
:105A7000051222F040020F4DA84208D00E4DA84258
:105A800005D00E4DA84202D00D4DA84209D123F4F5
:105A9000806323F400634D6943EA85038D6943EA1B
:105AA0008503436084614D688563026230BD0000F8
:105AB000FF8FFFFE002C01400040014000440140E8
:105AC0000048014030B5056A25F480750562026A18
:105AD0004368C4691E4D2C4024F003040D682C4318
